{
  "address": "0xDc64a140Aa3E981100a9becA4E685f962f0cF6C9",
  "abi": [
    {
      "inputs": [
        {
          "internalType": "string",
          "name": "_contractName",
          "type": "string"
        },
        {
          "internalType": "uint256",
          "name": "_targetAmountEth",
          "type": "uint256"
        },
        {
          "internalType": "uint256",
          "name": "_durationInMin",
          "type": "uint256"
        },
        {
          "internalType": "address payable",
          "name": "_beneficiary",
          "type": "address"
        }
      ],
      "stateMutability": "nonpayable",
      "type": "constructor"
    },
    {
      "inputs": [],
      "name": "beneficiary",
      "outputs": [
        {
          "internalType": "address payable",
          "name": "",
          "type": "address"
        }
      ],
      "stateMutability": "view",
      "type": "function"
    },
    {
      "inputs": [],
      "name": "collected",
      "outputs": [
        {
          "internalType": "bool",
          "name": "",
          "type": "bool"
        }
      ],
      "stateMutability": "view",
      "type": "function"
    },
    {
      "inputs": [],
      "name": "contribute",
      "outputs": [],
      "stateMutability": "payable",
      "type": "function"
    },
    {
      "inputs": [],
      "name": "fundingDeadline",
      "outputs": [
        {
          "internalType": "uint256",
          "name": "",
          "type": "uint256"
        }
      ],
      "stateMutability": "view",
      "type": "function"
    },
    {
      "inputs": [],
      "name": "isClosed",
      "outputs": [
        {
          "internalType": "bool",
          "name": "",
          "type": "bool"
        }
      ],
      "stateMutability": "view",
      "type": "function"
    },
    {
      "inputs": [],
      "name": "name",
      "outputs": [
        {
          "internalType": "string",
          "name": "",
          "type": "string"
        }
      ],
      "stateMutability": "view",
      "type": "function"
    },
    {
      "inputs": [],
      "name": "status",
      "outputs": [
        {
          "internalType": "enum CrowdFundingWithDeadline.Status",
          "name": "",
          "type": "uint8"
        }
      ],
      "stateMutability": "view",
      "type": "function"
    },
    {
      "inputs": [],
      "name": "targetAmount",
      "outputs": [
        {
          "internalType": "uint256",
          "name": "",
          "type": "uint256"
        }
      ],
      "stateMutability": "view",
      "type": "function"
    },
    {
      "inputs": [],
      "name": "totalCollected",
      "outputs": [
        {
          "internalType": "uint256",
          "name": "",
          "type": "uint256"
        }
      ],
      "stateMutability": "view",
      "type": "function"
    },
    {
      "inputs": [],
      "name": "tryClosing",
      "outputs": [
        {
          "internalType": "bool",
          "name": "",
          "type": "bool"
        }
      ],
      "stateMutability": "nonpayable",
      "type": "function"
    }
  ],
  "transactionHash": "0x08007293f6a8e9f1a009bda0014512fd45261cc755280f6b79898fb0b66f2bcc",
  "args": [
    "funding",
    1,
    10,
    "0x70997970C51812dc3A010C7d01b50e0d17dc79C8"
  ],
  "numDeployments": 1,
  "solcInputHash": "d60500553c810be8f7025bf51d345674",
  "bytecode": "0x60806040523480156200001157600080fd5b5060405162000fb238038062000fb28339818101604052810190620000379190620003f4565b83600090805190602001906200004f92919062000107565b50670de0b6b3a764000083620000669190620004b4565b600181905550603c826200007b9190620004b4565b4262000088919062000515565b60028190555080600360006101000a81548173ffffffffffffffffffffffffffffffffffffffff021916908373ffffffffffffffffffffffffffffffffffffffff1602179055506000600360146101000a81548160ff02191690836003811115620000f857620000f762000572565b5b02179055505050505062000606565b8280546200011590620005d0565b90600052602060002090601f01602090048101928262000139576000855562000185565b82601f106200015457805160ff191683800117855562000185565b8280016001018555821562000185579182015b828111156200018457825182559160200191906001019062000167565b5b50905062000194919062000198565b5090565b5b80821115620001b357600081600090555060010162000199565b5090565b6000604051905090565b600080fd5b600080fd5b600080fd5b600080fd5b6000601f19601f8301169050919050565b7f4e487b7100000000000000000000000000000000000000000000000000000000600052604160045260246000fd5b6200022082620001d5565b810181811067ffffffffffffffff82111715620002425762000241620001e6565b5b80604052505050565b600062000257620001b7565b905062000265828262000215565b919050565b600067ffffffffffffffff821115620002885762000287620001e6565b5b6200029382620001d5565b9050602081019050919050565b60005b83811015620002c0578082015181840152602081019050620002a3565b83811115620002d0576000848401525b50505050565b6000620002ed620002e7846200026a565b6200024b565b9050828152602081018484840111156200030c576200030b620001d0565b5b62000319848285620002a0565b509392505050565b600082601f830112620003395762000338620001cb565b5b81516200034b848260208601620002d6565b91505092915050565b6000819050919050565b620003698162000354565b81146200037557600080fd5b50565b60008151905062000389816200035e565b92915050565b600073ffffffffffffffffffffffffffffffffffffffff82169050919050565b6000620003bc826200038f565b9050919050565b620003ce81620003af565b8114620003da57600080fd5b50565b600081519050620003ee81620003c3565b92915050565b60008060008060808587031215620004115762000410620001c1565b5b600085015167ffffffffffffffff811115620004325762000431620001c6565b5b620004408782880162000321565b9450506020620004538782880162000378565b9350506040620004668782880162000378565b92505060606200047987828801620003dd565b91505092959194509250565b7f4e487b7100000000000000000000000000000000000000000000000000000000600052601160045260246000fd5b6000620004c18262000354565b9150620004ce8362000354565b9250817fffffffffffffffffffffffffffffffffffffffffffffffffffffffffffffffff04831182151516156200050a576200050962000485565b5b828202905092915050565b6000620005228262000354565b91506200052f8362000354565b9250827fffffffffffffffffffffffffffffffffffffffffffffffffffffffffffffffff0382111562000567576200056662000485565b5b828201905092915050565b7f4e487b7100000000000000000000000000000000000000000000000000000000600052602160045260246000fd5b7f4e487b7100000000000000000000000000000000000000000000000000000000600052602260045260246000fd5b60006002820490506001821680620005e957607f821691505b602082108114156200060057620005ff620005a1565b5b50919050565b61099c80620006166000396000f3fe6080604052600436106100915760003560e01c8063953b8fb811610059578063953b8fb81461016d578063b3d7917b14610198578063c2b6b58c146101c3578063d7bb99ba146101ee578063e29eb836146101f857610091565b806306fdde0314610096578063200d2ed2146100c157806338af3eed146100ec578063796b23bb1461011757806384bcefd414610142575b600080fd5b3480156100a257600080fd5b506100ab610223565b6040516100b891906105c2565b60405180910390f35b3480156100cd57600080fd5b506100d66102b1565b6040516100e3919061065b565b60405180910390f35b3480156100f857600080fd5b506101016102c4565b60405161010e91906106b7565b60405180910390f35b34801561012357600080fd5b5061012c6102ea565b60405161013991906106eb565b60405180910390f35b34801561014e57600080fd5b506101576102f0565b6040516101649190610721565b60405180910390f35b34801561017957600080fd5b50610182610303565b60405161018f91906106eb565b60405180910390f35b3480156101a457600080fd5b506101ad610309565b6040516101ba9190610721565b60405180910390f35b3480156101cf57600080fd5b506101d86103c8565b6040516101e59190610721565b60405180910390f35b6101f6610413565b005b34801561020457600080fd5b5061020d610523565b60405161021a91906106eb565b60405180910390f35b600080546102309061076b565b80601f016020809104026020016040519081016040528092919081815260200182805461025c9061076b565b80156102a95780601f1061027e576101008083540402835291602001916102a9565b820191906000526020600020905b81548152906001019060200180831161028c57829003601f168201915b505050505081565b600360149054906101000a900460ff1681565b600360009054906101000a900473ffffffffffffffffffffffffffffffffffffffff1681565b60025481565b600660009054906101000a900460ff1681565b60015481565b60006001546005541015610352576040517f08c379a0000000000000000000000000000000000000000000000000000000008152600401610349906107e9565b60405180910390fd5b6002544211610396576040517f08c379a000000000000000000000000000000000000000000000000000000000815260040161038d90610855565b60405180910390fd5b6002600360146101000a81548160ff021916908360038111156103bc576103bb6105e4565b5b02179055506001905090565b600060025442118061040e5750600060038111156103e9576103e86105e4565b5b600360149054906101000a900460ff16600381111561040b5761040a6105e4565b5b14155b905090565b6000806003811115610428576104276105e4565b5b600360149054906101000a900460ff16600381111561044a576104496105e4565b5b1461048a576040517f08c379a0000000000000000000000000000000000000000000000000000000008152600401610481906108c1565b60405180910390fd5b34600460003373ffffffffffffffffffffffffffffffffffffffff1673ffffffffffffffffffffffffffffffffffffffff16815260200190815260200160002060008282546104d99190610910565b9250508190555034600560008282546104f29190610910565b9250508190555060015460055410610520576001600660006101000a81548160ff0219169083151502179055505b50565b60055481565b600081519050919050565b600082825260208201905092915050565b60005b83811015610563578082015181840152602081019050610548565b83811115610572576000848401525b50505050565b6000601f19601f8301169050919050565b600061059482610529565b61059e8185610534565b93506105ae818560208601610545565b6105b781610578565b840191505092915050565b600060208201905081810360008301526105dc8184610589565b905092915050565b7f4e487b7100000000000000000000000000000000000000000000000000000000600052602160045260246000fd5b60048110610624576106236105e4565b5b50565b600081905061063582610613565b919050565b600061064582610627565b9050919050565b6106558161063a565b82525050565b6000602082019050610670600083018461064c565b92915050565b600073ffffffffffffffffffffffffffffffffffffffff82169050919050565b60006106a182610676565b9050919050565b6106b181610696565b82525050565b60006020820190506106cc60008301846106a8565b92915050565b6000819050919050565b6106e5816106d2565b82525050565b600060208201905061070060008301846106dc565b92915050565b60008115159050919050565b61071b81610706565b82525050565b60006020820190506107366000830184610712565b92915050565b7f4e487b7100000000000000000000000000000000000000000000000000000000600052602260045260246000fd5b6000600282049050600182168061078357607f821691505b602082108114156107975761079661073c565b5b50919050565b7f416d6f756e74206e6f74206d6574000000000000000000000000000000000000600082015250565b60006107d3600e83610534565b91506107de8261079d565b602082019050919050565b60006020820190508181036000830152610802816107c6565b9050919050565b7f54696d65206c6566740000000000000000000000000000000000000000000000600082015250565b600061083f600983610534565b915061084a82610809565b602082019050919050565b6000602082019050818103600083015261086e81610832565b9050919050565b7f496e76616c696420537461746500000000000000000000000000000000000000600082015250565b60006108ab600d83610534565b91506108b682610875565b602082019050919050565b600060208201905081810360008301526108da8161089e565b9050919050565b7f4e487b7100000000000000000000000000000000000000000000000000000000600052601160045260246000fd5b600061091b826106d2565b9150610926836106d2565b9250827fffffffffffffffffffffffffffffffffffffffffffffffffffffffffffffffff0382111561095b5761095a6108e1565b5b82820190509291505056fea2646970667358221220779aab02f95af435b406f1a9570fe3e98294ae1cce3eab6f93858e9c9029ae5a64736f6c63430008090033",
  "devdoc": {
    "kind": "dev",
    "methods": {},
    "version": 1
  },
  "userdoc": {
    "kind": "user",
    "methods": {},
    "version": 1
  },
  "storageLayout": {
    "storage": [
      {
        "astId": 8,
        "contract": "contracts/CrowdFundingWithDeadline.sol:CrowdFundingWithDeadline",
        "label": "name",
        "offset": 0,
        "slot": "0",
        "type": "t_string_storage"
      },
      {
        "astId": 10,
        "contract": "contracts/CrowdFundingWithDeadline.sol:CrowdFundingWithDeadline",
        "label": "targetAmount",
        "offset": 0,
        "slot": "1",
        "type": "t_uint256"
      },
      {
        "astId": 12,
        "contract": "contracts/CrowdFundingWithDeadline.sol:CrowdFundingWithDeadline",
        "label": "fundingDeadline",
        "offset": 0,
        "slot": "2",
        "type": "t_uint256"
      },
      {
        "astId": 14,
        "contract": "contracts/CrowdFundingWithDeadline.sol:CrowdFundingWithDeadline",
        "label": "beneficiary",
        "offset": 0,
        "slot": "3",
        "type": "t_address_payable"
      },
      {
        "astId": 17,
        "contract": "contracts/CrowdFundingWithDeadline.sol:CrowdFundingWithDeadline",
        "label": "status",
        "offset": 20,
        "slot": "3",
        "type": "t_enum(Status)6"
      },
      {
        "astId": 21,
        "contract": "contracts/CrowdFundingWithDeadline.sol:CrowdFundingWithDeadline",
        "label": "amounts",
        "offset": 0,
        "slot": "4",
        "type": "t_mapping(t_address,t_uint256)"
      },
      {
        "astId": 23,
        "contract": "contracts/CrowdFundingWithDeadline.sol:CrowdFundingWithDeadline",
        "label": "totalCollected",
        "offset": 0,
        "slot": "5",
        "type": "t_uint256"
      },
      {
        "astId": 25,
        "contract": "contracts/CrowdFundingWithDeadline.sol:CrowdFundingWithDeadline",
        "label": "collected",
        "offset": 0,
        "slot": "6",
        "type": "t_bool"
      }
    ],
    "types": {
      "t_address": {
        "encoding": "inplace",
        "label": "address",
        "numberOfBytes": "20"
      },
      "t_address_payable": {
        "encoding": "inplace",
        "label": "address payable",
        "numberOfBytes": "20"
      },
      "t_bool": {
        "encoding": "inplace",
        "label": "bool",
        "numberOfBytes": "1"
      },
      "t_enum(Status)6": {
        "encoding": "inplace",
        "label": "enum CrowdFundingWithDeadline.Status",
        "numberOfBytes": "1"
      },
      "t_mapping(t_address,t_uint256)": {
        "encoding": "mapping",
        "key": "t_address",
        "label": "mapping(address => uint256)",
        "numberOfBytes": "32",
        "value": "t_uint256"
      },
      "t_string_storage": {
        "encoding": "bytes",
        "label": "string",
        "numberOfBytes": "32"
      },
      "t_uint256": {
        "encoding": "inplace",
        "label": "uint256",
        "numberOfBytes": "32"
      }
    }
  }
}